{
  "contractName": "Ownable",
  "abi": [
    {
      "constant": true,
      "inputs": [],
      "name": "owner",
      "outputs": [
        {
          "name": "",
          "type": "address"
        }
      ],
      "payable": false,
      "stateMutability": "view",
      "type": "function"
    },
    {
      "constant": false,
      "inputs": [],
      "name": "_Ownable",
      "outputs": [],
      "payable": false,
      "stateMutability": "nonpayable",
      "type": "function"
    },
    {
      "constant": false,
      "inputs": [
        {
          "name": "newOwner",
          "type": "address"
        }
      ],
      "name": "transferOwnership",
      "outputs": [],
      "payable": false,
      "stateMutability": "nonpayable",
      "type": "function"
    }
  ],
  "bytecode": "0x608060405234801561001057600080fd5b50610275806100206000396000f300608060405260043610610057576000357c0100000000000000000000000000000000000000000000000000000000900463ffffffff1680638da5cb5b1461005c578063a78d85ae146100b3578063f2fde38b146100ca575b600080fd5b34801561006857600080fd5b5061007161010d565b604051808273ffffffffffffffffffffffffffffffffffffffff1673ffffffffffffffffffffffffffffffffffffffff16815260200191505060405180910390f35b3480156100bf57600080fd5b506100c8610132565b005b3480156100d657600080fd5b5061010b600480360381019080803573ffffffffffffffffffffffffffffffffffffffff169060200190929190505050610174565b005b6000809054906101000a900473ffffffffffffffffffffffffffffffffffffffff1681565b336000806101000a81548173ffffffffffffffffffffffffffffffffffffffff021916908373ffffffffffffffffffffffffffffffffffffffff160217905550565b6000809054906101000a900473ffffffffffffffffffffffffffffffffffffffff1673ffffffffffffffffffffffffffffffffffffffff163373ffffffffffffffffffffffffffffffffffffffff161415156101cf57600080fd5b600073ffffffffffffffffffffffffffffffffffffffff168173ffffffffffffffffffffffffffffffffffffffff1614151561024657806000806101000a81548173ffffffffffffffffffffffffffffffffffffffff021916908373ffffffffffffffffffffffffffffffffffffffff1602179055505b505600a165627a7a7230582048634aa33794faa27a78139a602d2cd7e875a0939f5278f59441eb3a1c0177580029",
  "source": "pragma solidity ^0.4.25;\r\n\r\nimport \"./IERC20.sol\";\r\n\r\ncontract Ownable {\r\n  address public owner;\r\n\r\n  function _Ownable() public {\r\n    owner = msg.sender;\r\n  }\r\n\r\n  modifier onlyOwner() {\r\n    if (msg.sender != owner) {\r\n      revert();\r\n    }\r\n    _;\r\n  }\r\n\r\n  function transferOwnership(address newOwner) public onlyOwner {\r\n    if (newOwner != address(0)) {\r\n      owner = newOwner;\r\n    }\r\n  }\r\n}\r\n\r\ncontract MultiLevelDistribution_AirDrop is Ownable {\r\n\r\n    function MultiLevelDistribution(address _tokenAddr, address[] dests, uint256[] values)public onlyOwner returns (uint256) {\r\n        uint256 i = 0;\r\n        while (i < dests.length) {\r\n           IERC20(_tokenAddr).transfer(dests[i], values[i]);\r\n           i += 1;\r\n        }\r\n        return(i);\r\n    }\r\n\r\n    function AirDrop ( address receiver, uint256 value) public {\r\n      address _tokenAddr = 0x7F71f62cA15Daf0d89186f0510F069fab84569a4; //address of my token\r\n      IERC20(_tokenAddr).transfer(receiver, value);\r\n  }\r\n\r\n}",
  "sourcePath": "C:\\Users\\AMADY Halim\\Desktop\\TD5\\beatcoin\\contracts\\AirDrop.sol",
  "compiler": {
    "name": "solc",
    "version": "0.4.25+commit.59dbf8f1.Emscripten.clang"
  },
  "schemaVersion": "2.0.2",
  "updatedAt": "2019-03-13T09:51:51.691Z"
}